{
  "_format": "hh-sol-artifact-1",
  "contractName": "MockCollection",
  "sourceName": "contracts/mockNftCollectionCtr.sol",
  "abi": [
    {
      "inputs": [],
      "stateMutability": "nonpayable",
      "type": "constructor"
    },
    {
      "anonymous": false,
      "inputs": [
        {
          "indexed": true,
          "internalType": "address",
          "name": "previousOwner",
          "type": "address"
        },
        {
          "indexed": true,
          "internalType": "address",
          "name": "newOwner",
          "type": "address"
        }
      ],
      "name": "OwnershipTransferred",
      "type": "event"
    },
    {
      "inputs": [],
      "name": "_baseURI",
      "outputs": [
        {
          "internalType": "string",
          "name": "",
          "type": "string"
        }
      ],
      "stateMutability": "view",
      "type": "function"
    },
    {
      "inputs": [],
      "name": "mint",
      "outputs": [],
      "stateMutability": "nonpayable",
      "type": "function"
    },
    {
      "inputs": [],
      "name": "owner",
      "outputs": [
        {
          "internalType": "address",
          "name": "",
          "type": "address"
        }
      ],
      "stateMutability": "view",
      "type": "function"
    },
    {
      "inputs": [
        {
          "internalType": "uint256",
          "name": "tokenId",
          "type": "uint256"
        }
      ],
      "name": "ownerOf",
      "outputs": [
        {
          "internalType": "address",
          "name": "owner",
          "type": "address"
        }
      ],
      "stateMutability": "view",
      "type": "function"
    },
    {
      "inputs": [],
      "name": "renounceOwnership",
      "outputs": [],
      "stateMutability": "nonpayable",
      "type": "function"
    },
    {
      "inputs": [
        {
          "internalType": "address",
          "name": "_addr1",
          "type": "address"
        }
      ],
      "name": "setAddr1",
      "outputs": [],
      "stateMutability": "nonpayable",
      "type": "function"
    },
    {
      "inputs": [
        {
          "internalType": "address",
          "name": "_addr2",
          "type": "address"
        }
      ],
      "name": "setAddr2",
      "outputs": [],
      "stateMutability": "nonpayable",
      "type": "function"
    },
    {
      "inputs": [
        {
          "internalType": "string",
          "name": "_newBaseURI",
          "type": "string"
        }
      ],
      "name": "setBaseURI",
      "outputs": [],
      "stateMutability": "nonpayable",
      "type": "function"
    },
    {
      "inputs": [
        {
          "internalType": "uint256",
          "name": "_tokenId",
          "type": "uint256"
        }
      ],
      "name": "tokenURI",
      "outputs": [
        {
          "internalType": "string",
          "name": "",
          "type": "string"
        }
      ],
      "stateMutability": "view",
      "type": "function"
    },
    {
      "inputs": [
        {
          "internalType": "address",
          "name": "newOwner",
          "type": "address"
        }
      ],
      "name": "transferOwnership",
      "outputs": [],
      "stateMutability": "nonpayable",
      "type": "function"
    }
  ],
  "bytecode": "0x608060405234801561001057600080fd5b5061002d61002261003a60201b60201c565b61004260201b60201c565b6000600481905550610106565b600033905090565b60008060009054906101000a900473ffffffffffffffffffffffffffffffffffffffff169050816000806101000a81548173ffffffffffffffffffffffffffffffffffffffff021916908373ffffffffffffffffffffffffffffffffffffffff1602179055508173ffffffffffffffffffffffffffffffffffffffff168173ffffffffffffffffffffffffffffffffffffffff167f8be0079c531659141344cd1fd0a4f28419497f9722a3daafe3b4186f6b6457e060405160405180910390a35050565b611304806101156000396000f3fe608060405234801561001057600080fd5b506004361061009e5760003560e01c80638da5cb5b116100665780638da5cb5b14610121578063c87b56dd1461013f578063e6cee3eb1461016f578063eb183bf61461018b578063f2fde38b146101a75761009e565b80631249c58b146100a357806355f804b3146100ad5780636352211e146100c9578063715018a6146100f9578063743976a014610103575b600080fd5b6100ab6101c3565b005b6100c760048036038101906100c29190610b6c565b61023c565b005b6100e360048036038101906100de9190610bad565b6102d2565b6040516100f09190610d7e565b60405180910390f35b6101016103be565b005b61010b610446565b6040516101189190610d99565b60405180910390f35b6101296104d8565b6040516101369190610d7e565b60405180910390f35b61015960048036038101906101549190610bad565b610501565b6040516101669190610d99565b60405180910390f35b61018960048036038101906101849190610b43565b6105a9565b005b6101a560048036038101906101a09190610b43565b6105ed565b005b6101c160048036038101906101bc9190610b43565b610631565b005b620f424060016004546101d69190610ecd565b6101e091906110b2565b6004819055503360056000600454815260200190815260200160002060006101000a81548173ffffffffffffffffffffffffffffffffffffffff021916908373ffffffffffffffffffffffffffffffffffffffff160217905550565b610244610729565b73ffffffffffffffffffffffffffffffffffffffff166102626104d8565b73ffffffffffffffffffffffffffffffffffffffff16146102b8576040517f08c379a00000000000000000000000000000000000000000000000000000000081526004016102af90610e1b565b60405180910390fd5b80600390805190602001906102ce929190610a0e565b5050565b60006102dd82610731565b61031c576040517f08c379a000000000000000000000000000000000000000000000000000000000815260040161031390610dfb565b60405180910390fd5b600182141561034f57600160009054906101000a900473ffffffffffffffffffffffffffffffffffffffff1690506103b9565b600282141561038257600260009054906101000a900473ffffffffffffffffffffffffffffffffffffffff1690506103b9565b6005600083815260200190815260200160002060009054906101000a900473ffffffffffffffffffffffffffffffffffffffff1690505b919050565b6103c6610729565b73ffffffffffffffffffffffffffffffffffffffff166103e46104d8565b73ffffffffffffffffffffffffffffffffffffffff161461043a576040517f08c379a000000000000000000000000000000000000000000000000000000000815260040161043190610e1b565b60405180910390fd5b610444600061079d565b565b60606003805461045590611006565b80601f016020809104026020016040519081016040528092919081815260200182805461048190611006565b80156104ce5780601f106104a3576101008083540402835291602001916104ce565b820191906000526020600020905b8154815290600101906020018083116104b157829003601f168201915b5050505050905090565b60008060009054906101000a900473ffffffffffffffffffffffffffffffffffffffff16905090565b606061050c82610731565b61054b576040517f08c379a000000000000000000000000000000000000000000000000000000000815260040161054290610dbb565b60405180910390fd5b6000610555610446565b9050600081511161057557604051806020016040528060008152506105a1565b600361058084610861565b604051602001610591929190610d5a565b6040516020818303038152906040525b915050919050565b80600160006101000a81548173ffffffffffffffffffffffffffffffffffffffff021916908373ffffffffffffffffffffffffffffffffffffffff16021790555050565b80600260006101000a81548173ffffffffffffffffffffffffffffffffffffffff021916908373ffffffffffffffffffffffffffffffffffffffff16021790555050565b610639610729565b73ffffffffffffffffffffffffffffffffffffffff166106576104d8565b73ffffffffffffffffffffffffffffffffffffffff16146106ad576040517f08c379a00000000000000000000000000000000000000000000000000000000081526004016106a490610e1b565b60405180910390fd5b600073ffffffffffffffffffffffffffffffffffffffff168173ffffffffffffffffffffffffffffffffffffffff16141561071d576040517f08c379a000000000000000000000000000000000000000000000000000000000815260040161071490610ddb565b60405180910390fd5b6107268161079d565b50565b600033905090565b60008073ffffffffffffffffffffffffffffffffffffffff166005600084815260200190815260200160002060009054906101000a900473ffffffffffffffffffffffffffffffffffffffff1673ffffffffffffffffffffffffffffffffffffffff1614159050919050565b60008060009054906101000a900473ffffffffffffffffffffffffffffffffffffffff169050816000806101000a81548173ffffffffffffffffffffffffffffffffffffffff021916908373ffffffffffffffffffffffffffffffffffffffff1602179055508173ffffffffffffffffffffffffffffffffffffffff168173ffffffffffffffffffffffffffffffffffffffff167f8be0079c531659141344cd1fd0a4f28419497f9722a3daafe3b4186f6b6457e060405160405180910390a35050565b606060008214156108a9576040518060400160405280600181526020017f30000000000000000000000000000000000000000000000000000000000000008152509050610a09565b600082905060005b600082146108db5780806108c490611069565b915050600a826108d49190610f23565b91506108b1565b60008167ffffffffffffffff81111561091d577f4e487b7100000000000000000000000000000000000000000000000000000000600052604160045260246000fd5b6040519080825280601f01601f19166020018201604052801561094f5781602001600182028036833780820191505090505b5090505b60008514610a02576001826109689190610f54565b9150600a8561097791906110b2565b60306109839190610ecd565b60f81b8183815181106109bf577f4e487b7100000000000000000000000000000000000000000000000000000000600052603260045260246000fd5b60200101907effffffffffffffffffffffffffffffffffffffffffffffffffffffffffffff1916908160001a905350600a856109fb9190610f23565b9450610953565b8093505050505b919050565b828054610a1a90611006565b90600052602060002090601f016020900481019282610a3c5760008555610a83565b82601f10610a5557805160ff1916838001178555610a83565b82800160010185558215610a83579182015b82811115610a82578251825591602001919060010190610a67565b5b509050610a909190610a94565b5090565b5b80821115610aad576000816000905550600101610a95565b5090565b6000610ac4610abf84610e60565b610e3b565b905082815260208101848484011115610adc57600080fd5b610ae7848285610fc4565b509392505050565b600081359050610afe816112a0565b92915050565b600082601f830112610b1557600080fd5b8135610b25848260208601610ab1565b91505092915050565b600081359050610b3d816112b7565b92915050565b600060208284031215610b5557600080fd5b6000610b6384828501610aef565b91505092915050565b600060208284031215610b7e57600080fd5b600082013567ffffffffffffffff811115610b9857600080fd5b610ba484828501610b04565b91505092915050565b600060208284031215610bbf57600080fd5b6000610bcd84828501610b2e565b91505092915050565b610bdf81610f88565b82525050565b6000610bf082610ea6565b610bfa8185610eb1565b9350610c0a818560208601610fd3565b610c138161119f565b840191505092915050565b6000610c2982610ea6565b610c338185610ec2565b9350610c43818560208601610fd3565b80840191505092915050565b60008154610c5c81611006565b610c668186610ec2565b94506001821660008114610c815760018114610c9257610cc5565b60ff19831686528186019350610cc5565b610c9b85610e91565b60005b83811015610cbd57815481890152600182019150602081019050610c9e565b838801955050505b50505092915050565b6000610cdb601f83610eb1565b9150610ce6826111b0565b602082019050919050565b6000610cfe602683610eb1565b9150610d09826111d9565b604082019050919050565b6000610d21602983610eb1565b9150610d2c82611228565b604082019050919050565b6000610d44602083610eb1565b9150610d4f82611277565b602082019050919050565b6000610d668285610c4f565b9150610d728284610c1e565b91508190509392505050565b6000602082019050610d936000830184610bd6565b92915050565b60006020820190508181036000830152610db38184610be5565b905092915050565b60006020820190508181036000830152610dd481610cce565b9050919050565b60006020820190508181036000830152610df481610cf1565b9050919050565b60006020820190508181036000830152610e1481610d14565b9050919050565b60006020820190508181036000830152610e3481610d37565b9050919050565b6000610e45610e56565b9050610e518282611038565b919050565b6000604051905090565b600067ffffffffffffffff821115610e7b57610e7a611170565b5b610e848261119f565b9050602081019050919050565b60008190508160005260206000209050919050565b600081519050919050565b600082825260208201905092915050565b600081905092915050565b6000610ed882610fba565b9150610ee383610fba565b9250827fffffffffffffffffffffffffffffffffffffffffffffffffffffffffffffffff03821115610f1857610f176110e3565b5b828201905092915050565b6000610f2e82610fba565b9150610f3983610fba565b925082610f4957610f48611112565b5b828204905092915050565b6000610f5f82610fba565b9150610f6a83610fba565b925082821015610f7d57610f7c6110e3565b5b828203905092915050565b6000610f9382610f9a565b9050919050565b600073ffffffffffffffffffffffffffffffffffffffff82169050919050565b6000819050919050565b82818337600083830152505050565b60005b83811015610ff1578082015181840152602081019050610fd6565b83811115611000576000848401525b50505050565b6000600282049050600182168061101e57607f821691505b6020821081141561103257611031611141565b5b50919050565b6110418261119f565b810181811067ffffffffffffffff821117156110605761105f611170565b5b80604052505050565b600061107482610fba565b91507fffffffffffffffffffffffffffffffffffffffffffffffffffffffffffffffff8214156110a7576110a66110e3565b5b600182019050919050565b60006110bd82610fba565b91506110c883610fba565b9250826110d8576110d7611112565b5b828206905092915050565b7f4e487b7100000000000000000000000000000000000000000000000000000000600052601160045260246000fd5b7f4e487b7100000000000000000000000000000000000000000000000000000000600052601260045260246000fd5b7f4e487b7100000000000000000000000000000000000000000000000000000000600052602260045260246000fd5b7f4e487b7100000000000000000000000000000000000000000000000000000000600052604160045260246000fd5b6000601f19601f8301169050919050565b7f55524920717565727920666f72206e6f6e6578697374656e7420746f6b656e00600082015250565b7f4f776e61626c653a206e6577206f776e657220697320746865207a65726f206160008201527f6464726573730000000000000000000000000000000000000000000000000000602082015250565b7f4552433732313a206f776e657220717565727920666f72206e6f6e657869737460008201527f656e7420746f6b656e0000000000000000000000000000000000000000000000602082015250565b7f4f776e61626c653a2063616c6c6572206973206e6f7420746865206f776e6572600082015250565b6112a981610f88565b81146112b457600080fd5b50565b6112c081610fba565b81146112cb57600080fd5b5056fea26469706673582212207d4371a3024d1f65fcfe129070acf2b905ea3be2f702b095c5dfcb1b01375f4d64736f6c63430008040033",
  "linkReferences": {},
  "deployedLinkReferences": {}
}