{
  "_format": "hh-sol-artifact-1",
  "contractName": "Checker",
  "sourceName": "contracts/NftRemixCtr.sol",
  "abi": [
    {
      "inputs": [],
      "stateMutability": "nonpayable",
      "type": "constructor"
    },
    {
      "anonymous": false,
      "inputs": [
        {
          "indexed": false,
          "internalType": "uint256",
          "name": "id",
          "type": "uint256"
        }
      ],
      "name": "BurnedNft",
      "type": "event"
    },
    {
      "anonymous": false,
      "inputs": [
        {
          "indexed": true,
          "internalType": "address",
          "name": "previousOwner",
          "type": "address"
        },
        {
          "indexed": true,
          "internalType": "address",
          "name": "newOwner",
          "type": "address"
        }
      ],
      "name": "OwnershipTransferred",
      "type": "event"
    },
    {
      "anonymous": false,
      "inputs": [
        {
          "indexed": false,
          "internalType": "uint256",
          "name": "id",
          "type": "uint256"
        },
        {
          "indexed": false,
          "internalType": "uint256",
          "name": "hash",
          "type": "uint256"
        }
      ],
      "name": "RemixedNft",
      "type": "event"
    },
    {
      "inputs": [],
      "name": "_baseURI",
      "outputs": [
        {
          "internalType": "string",
          "name": "",
          "type": "string"
        }
      ],
      "stateMutability": "view",
      "type": "function"
    },
    {
      "inputs": [
        {
          "internalType": "address",
          "name": "_addr",
          "type": "address"
        }
      ],
      "name": "balanceOf",
      "outputs": [
        {
          "internalType": "uint256",
          "name": "",
          "type": "uint256"
        }
      ],
      "stateMutability": "view",
      "type": "function"
    },
    {
      "inputs": [
        {
          "internalType": "uint256",
          "name": "_tokenId",
          "type": "uint256"
        }
      ],
      "name": "burn",
      "outputs": [],
      "stateMutability": "payable",
      "type": "function"
    },
    {
      "inputs": [],
      "name": "burnCost",
      "outputs": [
        {
          "internalType": "uint256",
          "name": "",
          "type": "uint256"
        }
      ],
      "stateMutability": "view",
      "type": "function"
    },
    {
      "inputs": [],
      "name": "currentCtrBalance",
      "outputs": [
        {
          "internalType": "uint256",
          "name": "",
          "type": "uint256"
        }
      ],
      "stateMutability": "view",
      "type": "function"
    },
    {
      "inputs": [
        {
          "internalType": "uint256",
          "name": "_tokenId",
          "type": "uint256"
        }
      ],
      "name": "hashOfToken",
      "outputs": [
        {
          "internalType": "uint256",
          "name": "",
          "type": "uint256"
        }
      ],
      "stateMutability": "view",
      "type": "function"
    },
    {
      "inputs": [
        {
          "internalType": "address",
          "name": "_originalContract",
          "type": "address"
        },
        {
          "internalType": "uint256",
          "name": "_idInContract",
          "type": "uint256"
        },
        {
          "internalType": "uint256",
          "name": "_hashOfImg",
          "type": "uint256"
        }
      ],
      "name": "mintRemixedNft",
      "outputs": [],
      "stateMutability": "payable",
      "type": "function"
    },
    {
      "inputs": [],
      "name": "owner",
      "outputs": [
        {
          "internalType": "address",
          "name": "",
          "type": "address"
        }
      ],
      "stateMutability": "view",
      "type": "function"
    },
    {
      "inputs": [
        {
          "internalType": "uint256",
          "name": "_tokenId",
          "type": "uint256"
        }
      ],
      "name": "ownerOf",
      "outputs": [
        {
          "internalType": "address",
          "name": "",
          "type": "address"
        }
      ],
      "stateMutability": "view",
      "type": "function"
    },
    {
      "inputs": [],
      "name": "remixCost",
      "outputs": [
        {
          "internalType": "uint256",
          "name": "",
          "type": "uint256"
        }
      ],
      "stateMutability": "view",
      "type": "function"
    },
    {
      "inputs": [],
      "name": "renounceOwnership",
      "outputs": [],
      "stateMutability": "nonpayable",
      "type": "function"
    },
    {
      "inputs": [
        {
          "internalType": "string",
          "name": "_newBaseURI",
          "type": "string"
        }
      ],
      "name": "setBaseURI",
      "outputs": [],
      "stateMutability": "nonpayable",
      "type": "function"
    },
    {
      "inputs": [
        {
          "internalType": "uint256",
          "name": "_newTaxInWei",
          "type": "uint256"
        }
      ],
      "name": "setBurnCostWei",
      "outputs": [],
      "stateMutability": "nonpayable",
      "type": "function"
    },
    {
      "inputs": [
        {
          "internalType": "uint256",
          "name": "_newTaxInWei",
          "type": "uint256"
        }
      ],
      "name": "setRemixCostWei",
      "outputs": [],
      "stateMutability": "nonpayable",
      "type": "function"
    },
    {
      "inputs": [
        {
          "internalType": "uint256",
          "name": "_tokenId",
          "type": "uint256"
        }
      ],
      "name": "tokenURI",
      "outputs": [
        {
          "internalType": "string",
          "name": "",
          "type": "string"
        }
      ],
      "stateMutability": "view",
      "type": "function"
    },
    {
      "inputs": [],
      "name": "totalRemixedNfts",
      "outputs": [
        {
          "internalType": "uint256",
          "name": "",
          "type": "uint256"
        }
      ],
      "stateMutability": "view",
      "type": "function"
    },
    {
      "inputs": [
        {
          "internalType": "address",
          "name": "newOwner",
          "type": "address"
        }
      ],
      "name": "transferOwnership",
      "outputs": [],
      "stateMutability": "nonpayable",
      "type": "function"
    },
    {
      "inputs": [],
      "name": "withdraw",
      "outputs": [],
      "stateMutability": "payable",
      "type": "function"
    }
  ],
  "bytecode": "0x608060405234801561001057600080fd5b5061002d61002261004960201b60201c565b61005160201b60201c565b6000600181905550670de0b6b3a7640000600281905550610115565b600033905090565b60008060009054906101000a900473ffffffffffffffffffffffffffffffffffffffff169050816000806101000a81548173ffffffffffffffffffffffffffffffffffffffff021916908373ffffffffffffffffffffffffffffffffffffffff1602179055508173ffffffffffffffffffffffffffffffffffffffff168173ffffffffffffffffffffffffffffffffffffffff167f8be0079c531659141344cd1fd0a4f28419497f9722a3daafe3b4186f6b6457e060405160405180910390a35050565b6121e580620001256000396000f3fe6080604052600436106101095760003560e01c8063743976a011610095578063b99caf3f11610064578063b99caf3f1461032b578063c73ddcc914610347578063c87b56dd14610370578063f2fde38b146103ad578063f876e182146103d657610109565b8063743976a01461027f5780638da5cb5b146102aa578063903ac1fe146102d5578063af2281d41461030057610109565b80636352211e116100dc5780636352211e146101865780636cc5b2c3146101c35780636f7e4651146101ee57806370a082311461022b578063715018a61461026857610109565b806313065aec1461010e5780633ccfd60b1461013757806342966c681461014157806355f804b31461015d575b600080fd5b34801561011a57600080fd5b5061013560048036038101906101309190611789565b610401565b005b61013f610487565b005b61015b60048036038101906101569190611789565b6105b9565b005b34801561016957600080fd5b50610184600480360381019061017f9190611748565b610916565b005b34801561019257600080fd5b506101ad60048036038101906101a89190611789565b6109ac565b6040516101ba9190611a50565b60405180910390f35b3480156101cf57600080fd5b506101d8610b36565b6040516101e59190611bad565b60405180910390f35b3480156101fa57600080fd5b5061021560048036038101906102109190611789565b610b40565b6040516102229190611bad565b60405180910390f35b34801561023757600080fd5b50610252600480360381019061024d91906116a7565b610ba8565b60405161025f9190611bad565b60405180910390f35b34801561027457600080fd5b5061027d610bf1565b005b34801561028b57600080fd5b50610294610c79565b6040516102a19190611a6b565b60405180910390f35b3480156102b657600080fd5b506102bf610d0b565b6040516102cc9190611a50565b60405180910390f35b3480156102e157600080fd5b506102ea610d34565b6040516102f79190611bad565b60405180910390f35b34801561030c57600080fd5b50610315610db8565b6040516103229190611bad565b60405180910390f35b610345600480360381019061034091906116f9565b610dc2565b005b34801561035357600080fd5b5061036e60048036038101906103699190611789565b611080565b005b34801561037c57600080fd5b5061039760048036038101906103929190611789565b611106565b6040516103a49190611a6b565b60405180910390f35b3480156103b957600080fd5b506103d460048036038101906103cf91906116a7565b6111ae565b005b3480156103e257600080fd5b506103eb6112a6565b6040516103f89190611bad565b60405180910390f35b6104096112b0565b73ffffffffffffffffffffffffffffffffffffffff16610427610d0b565b73ffffffffffffffffffffffffffffffffffffffff161461047d576040517f08c379a000000000000000000000000000000000000000000000000000000000815260040161047490611b2d565b60405180910390fd5b8060028190555050565b61048f6112b0565b73ffffffffffffffffffffffffffffffffffffffff166104ad610d0b565b73ffffffffffffffffffffffffffffffffffffffff1614610503576040517f08c379a00000000000000000000000000000000000000000000000000000000081526004016104fa90611b2d565b60405180910390fd5b600061050d610d0b565b73ffffffffffffffffffffffffffffffffffffffff164760405161053090611a3b565b60006040518083038185875af1925050503d806000811461056d576040519150601f19603f3d011682016040523d82523d6000602084013e610572565b606091505b50509050806105b6576040517f08c379a00000000000000000000000000000000000000000000000000000000081526004016105ad90611b6d565b60405180910390fd5b50565b6105c2816112b8565b610601576040517f08c379a00000000000000000000000000000000000000000000000000000000081526004016105f890611b4d565b60405180910390fd5b6106096112a6565b34101561064b576040517f08c379a000000000000000000000000000000000000000000000000000000000815260040161064290611acd565b60405180910390fd5b6000600460008381526020019081526020016000206040518060800160405290816000820160009054906101000a900473ffffffffffffffffffffffffffffffffffffffff1673ffffffffffffffffffffffffffffffffffffffff1673ffffffffffffffffffffffffffffffffffffffff16815260200160018201548152602001600282015481526020016003820160009054906101000a900460ff16151515158152505090506000816000015173ffffffffffffffffffffffffffffffffffffffff16636352211e83602001516040518263ffffffff1660e01b81526004016107359190611bad565b60206040518083038186803b15801561074d57600080fd5b505afa158015610761573d6000803e3d6000fd5b505050506040513d601f19601f8201168201806040525081019061078591906116d0565b90503373ffffffffffffffffffffffffffffffffffffffff168173ffffffffffffffffffffffffffffffffffffffff16146107f5576040517f08c379a00000000000000000000000000000000000000000000000000000000081526004016107ec90611b8d565b60405180910390fd5b60006004600085815260200190815260200160002060030160006101000a81548160ff02191690831515021790555060046000848152602001908152602001600020600080820160006101000a81549073ffffffffffffffffffffffffffffffffffffffff0219169055600182016000905560028201600090556003820160006101000a81549060ff02191690555050600560003373ffffffffffffffffffffffffffffffffffffffff1673ffffffffffffffffffffffffffffffffffffffff16815260200190815260200160002060008154809291906108d590611dc7565b91905055507f6834152b13b14874ce1a95c7f53d552459481e9875ead957a619501238169a32836040516109099190611bad565b60405180910390a1505050565b61091e6112b0565b73ffffffffffffffffffffffffffffffffffffffff1661093c610d0b565b73ffffffffffffffffffffffffffffffffffffffff1614610992576040517f08c379a000000000000000000000000000000000000000000000000000000000815260040161098990611b2d565b60405180910390fd5b80600690805190602001906109a892919061155d565b5050565b60006109b7826112b8565b6109f6576040517f08c379a00000000000000000000000000000000000000000000000000000000081526004016109ed90611b4d565b60405180910390fd5b6000600460008481526020019081526020016000206040518060800160405290816000820160009054906101000a900473ffffffffffffffffffffffffffffffffffffffff1673ffffffffffffffffffffffffffffffffffffffff1673ffffffffffffffffffffffffffffffffffffffff16815260200160018201548152602001600282015481526020016003820160009054906101000a900460ff1615151515815250509050806000015173ffffffffffffffffffffffffffffffffffffffff16636352211e82602001516040518263ffffffff1660e01b8152600401610ade9190611bad565b60206040518083038186803b158015610af657600080fd5b505afa158015610b0a573d6000803e3d6000fd5b505050506040513d601f19601f82011682018060405250810190610b2e91906116d0565b915050919050565b6000600154905090565b6000610b4b826112b8565b610b8a576040517f08c379a0000000000000000000000000000000000000000000000000000000008152600401610b8190611aed565b60405180910390fd5b60046000838152602001908152602001600020600201549050919050565b6000600560008373ffffffffffffffffffffffffffffffffffffffff1673ffffffffffffffffffffffffffffffffffffffff168152602001908152602001600020549050919050565b610bf96112b0565b73ffffffffffffffffffffffffffffffffffffffff16610c17610d0b565b73ffffffffffffffffffffffffffffffffffffffff1614610c6d576040517f08c379a0000000000000000000000000000000000000000000000000000000008152600401610c6490611b2d565b60405180910390fd5b610c7760006112ec565b565b606060068054610c8890611df1565b80601f0160208091040260200160405190810160405280929190818152602001828054610cb490611df1565b8015610d015780601f10610cd657610100808354040283529160200191610d01565b820191906000526020600020905b815481529060010190602001808311610ce457829003601f168201915b5050505050905090565b60008060009054906101000a900473ffffffffffffffffffffffffffffffffffffffff16905090565b6000610d3e6112b0565b73ffffffffffffffffffffffffffffffffffffffff16610d5c610d0b565b73ffffffffffffffffffffffffffffffffffffffff1614610db2576040517f08c379a0000000000000000000000000000000000000000000000000000000008152600401610da990611b2d565b60405180910390fd5b47905090565b6000600254905090565b610dca610db8565b341015610e0c576040517f08c379a0000000000000000000000000000000000000000000000000000000008152600401610e0390611acd565b60405180910390fd5b60008373ffffffffffffffffffffffffffffffffffffffff16636352211e846040518263ffffffff1660e01b8152600401610e479190611bad565b60206040518083038186803b158015610e5f57600080fd5b505afa158015610e73573d6000803e3d6000fd5b505050506040513d601f19601f82011682018060405250810190610e9791906116d0565b90503373ffffffffffffffffffffffffffffffffffffffff168173ffffffffffffffffffffffffffffffffffffffff1614610f07576040517f08c379a0000000000000000000000000000000000000000000000000000000008152600401610efe90611b0d565b60405180910390fd5b6000600160008154610f1890611e54565b9190508190559050600560003373ffffffffffffffffffffffffffffffffffffffff1673ffffffffffffffffffffffffffffffffffffffff1681526020019081526020016000206000815480929190610f7090611e54565b919050555060405180608001604052808673ffffffffffffffffffffffffffffffffffffffff168152602001858152602001848152602001600115158152506004600083815260200190815260200160002060008201518160000160006101000a81548173ffffffffffffffffffffffffffffffffffffffff021916908373ffffffffffffffffffffffffffffffffffffffff160217905550602082015181600101556040820151816002015560608201518160030160006101000a81548160ff0219169083151502179055509050507f0db8318260891aa7ebf77c4209323085820c3dbbe94886c85560c166805f02738184604051611071929190611bc8565b60405180910390a15050505050565b6110886112b0565b73ffffffffffffffffffffffffffffffffffffffff166110a6610d0b565b73ffffffffffffffffffffffffffffffffffffffff16146110fc576040517f08c379a00000000000000000000000000000000000000000000000000000000081526004016110f390611b2d565b60405180910390fd5b8060038190555050565b6060611111826112b8565b611150576040517f08c379a000000000000000000000000000000000000000000000000000000000815260040161114790611a8d565b60405180910390fd5b600061115a610c79565b9050600081511161117a57604051806020016040528060008152506111a6565b6006611185846113b0565b604051602001611196929190611a17565b6040516020818303038152906040525b915050919050565b6111b66112b0565b73ffffffffffffffffffffffffffffffffffffffff166111d4610d0b565b73ffffffffffffffffffffffffffffffffffffffff161461122a576040517f08c379a000000000000000000000000000000000000000000000000000000000815260040161122190611b2d565b60405180910390fd5b600073ffffffffffffffffffffffffffffffffffffffff168173ffffffffffffffffffffffffffffffffffffffff16141561129a576040517f08c379a000000000000000000000000000000000000000000000000000000000815260040161129190611aad565b60405180910390fd5b6112a3816112ec565b50565b6000600354905090565b600033905090565b6000600115156004600084815260200190815260200160002060030160009054906101000a900460ff161515149050919050565b60008060009054906101000a900473ffffffffffffffffffffffffffffffffffffffff169050816000806101000a81548173ffffffffffffffffffffffffffffffffffffffff021916908373ffffffffffffffffffffffffffffffffffffffff1602179055508173ffffffffffffffffffffffffffffffffffffffff168173ffffffffffffffffffffffffffffffffffffffff167f8be0079c531659141344cd1fd0a4f28419497f9722a3daafe3b4186f6b6457e060405160405180910390a35050565b606060008214156113f8576040518060400160405280600181526020017f30000000000000000000000000000000000000000000000000000000000000008152509050611558565b600082905060005b6000821461142a57808061141390611e54565b915050600a826114239190611ce4565b9150611400565b60008167ffffffffffffffff81111561146c577f4e487b7100000000000000000000000000000000000000000000000000000000600052604160045260246000fd5b6040519080825280601f01601f19166020018201604052801561149e5781602001600182028036833780820191505090505b5090505b60008514611551576001826114b79190611d15565b9150600a856114c69190611e9d565b60306114d29190611c8e565b60f81b81838151811061150e577f4e487b7100000000000000000000000000000000000000000000000000000000600052603260045260246000fd5b60200101907effffffffffffffffffffffffffffffffffffffffffffffffffffffffffffff1916908160001a905350600a8561154a9190611ce4565b94506114a2565b8093505050505b919050565b82805461156990611df1565b90600052602060002090601f01602090048101928261158b57600085556115d2565b82601f106115a457805160ff19168380011785556115d2565b828001600101855582156115d2579182015b828111156115d15782518255916020019190600101906115b6565b5b5090506115df91906115e3565b5090565b5b808211156115fc5760008160009055506001016115e4565b5090565b600061161361160e84611c16565b611bf1565b90508281526020810184848401111561162b57600080fd5b611636848285611d85565b509392505050565b60008135905061164d81612181565b92915050565b60008151905061166281612181565b92915050565b600082601f83011261167957600080fd5b8135611689848260208601611600565b91505092915050565b6000813590506116a181612198565b92915050565b6000602082840312156116b957600080fd5b60006116c78482850161163e565b91505092915050565b6000602082840312156116e257600080fd5b60006116f084828501611653565b91505092915050565b60008060006060848603121561170e57600080fd5b600061171c8682870161163e565b935050602061172d86828701611692565b925050604061173e86828701611692565b9150509250925092565b60006020828403121561175a57600080fd5b600082013567ffffffffffffffff81111561177457600080fd5b61178084828501611668565b91505092915050565b60006020828403121561179b57600080fd5b60006117a984828501611692565b91505092915050565b6117bb81611d49565b82525050565b60006117cc82611c5c565b6117d68185611c72565b93506117e6818560208601611d94565b6117ef81611f8a565b840191505092915050565b600061180582611c5c565b61180f8185611c83565b935061181f818560208601611d94565b80840191505092915050565b6000815461183881611df1565b6118428186611c83565b9450600182166000811461185d576001811461186e576118a1565b60ff198316865281860193506118a1565b61187785611c47565b60005b838110156118995781548189015260018201915060208101905061187a565b838801955050505b50505092915050565b60006118b7601f83611c72565b91506118c282611f9b565b602082019050919050565b60006118da602683611c72565b91506118e582611fc4565b604082019050919050565b60006118fd600e83611c72565b915061190882612013565b602082019050919050565b6000611920602083611c72565b915061192b8261203c565b602082019050919050565b6000611943602583611c72565b915061194e82612065565b604082019050919050565b6000611966602083611c72565b9150611971826120b4565b602082019050919050565b6000611989601583611c72565b9150611994826120dd565b602082019050919050565b60006119ac600083611c67565b91506119b782612106565b600082019050919050565b60006119cf600f83611c72565b91506119da82612109565b602082019050919050565b60006119f2602483611c72565b91506119fd82612132565b604082019050919050565b611a1181611d7b565b82525050565b6000611a23828561182b565b9150611a2f82846117fa565b91508190509392505050565b6000611a468261199f565b9150819050919050565b6000602082019050611a6560008301846117b2565b92915050565b60006020820190508181036000830152611a8581846117c1565b905092915050565b60006020820190508181036000830152611aa6816118aa565b9050919050565b60006020820190508181036000830152611ac6816118cd565b9050919050565b60006020820190508181036000830152611ae6816118f0565b9050919050565b60006020820190508181036000830152611b0681611913565b9050919050565b60006020820190508181036000830152611b2681611936565b9050919050565b60006020820190508181036000830152611b4681611959565b9050919050565b60006020820190508181036000830152611b668161197c565b9050919050565b60006020820190508181036000830152611b86816119c2565b9050919050565b60006020820190508181036000830152611ba6816119e5565b9050919050565b6000602082019050611bc26000830184611a08565b92915050565b6000604082019050611bdd6000830185611a08565b611bea6020830184611a08565b9392505050565b6000611bfb611c0c565b9050611c078282611e23565b919050565b6000604051905090565b600067ffffffffffffffff821115611c3157611c30611f5b565b5b611c3a82611f8a565b9050602081019050919050565b60008190508160005260206000209050919050565b600081519050919050565b600081905092915050565b600082825260208201905092915050565b600081905092915050565b6000611c9982611d7b565b9150611ca483611d7b565b9250827fffffffffffffffffffffffffffffffffffffffffffffffffffffffffffffffff03821115611cd957611cd8611ece565b5b828201905092915050565b6000611cef82611d7b565b9150611cfa83611d7b565b925082611d0a57611d09611efd565b5b828204905092915050565b6000611d2082611d7b565b9150611d2b83611d7b565b925082821015611d3e57611d3d611ece565b5b828203905092915050565b6000611d5482611d5b565b9050919050565b600073ffffffffffffffffffffffffffffffffffffffff82169050919050565b6000819050919050565b82818337600083830152505050565b60005b83811015611db2578082015181840152602081019050611d97565b83811115611dc1576000848401525b50505050565b6000611dd282611d7b565b91506000821415611de657611de5611ece565b5b600182039050919050565b60006002820490506001821680611e0957607f821691505b60208210811415611e1d57611e1c611f2c565b5b50919050565b611e2c82611f8a565b810181811067ffffffffffffffff82111715611e4b57611e4a611f5b565b5b80604052505050565b6000611e5f82611d7b565b91507fffffffffffffffffffffffffffffffffffffffffffffffffffffffffffffffff821415611e9257611e91611ece565b5b600182019050919050565b6000611ea882611d7b565b9150611eb383611d7b565b925082611ec357611ec2611efd565b5b828206905092915050565b7f4e487b7100000000000000000000000000000000000000000000000000000000600052601160045260246000fd5b7f4e487b7100000000000000000000000000000000000000000000000000000000600052601260045260246000fd5b7f4e487b7100000000000000000000000000000000000000000000000000000000600052602260045260246000fd5b7f4e487b7100000000000000000000000000000000000000000000000000000000600052604160045260246000fd5b6000601f19601f8301169050919050565b7f55524920717565727920666f72206e6f6e6578697374656e7420746f6b656e00600082015250565b7f4f776e61626c653a206e6577206f776e657220697320746865207a65726f206160008201527f6464726573730000000000000000000000000000000000000000000000000000602082015250565b7f6e65656420746f20706179207570000000000000000000000000000000000000600082015250565b7f4861736820717565727920666f72206e6f6e6578697374656e7420746f6b656e600082015250565b7f63616e6e6f742072656d697820616e206e66742074686174206973206e6f742060008201527f796f757273000000000000000000000000000000000000000000000000000000602082015250565b7f4f776e61626c653a2063616c6c6572206973206e6f7420746865206f776e6572600082015250565b7f746f6b656e206964206e6f74206578697374696e670000000000000000000000600082015250565b50565b7f7769746864726177206661696c65640000000000000000000000000000000000600082015250565b7f796f752063616e6e6f74206275726e20736f6d656f6e6520656c73652773207460008201527f6f6b656e00000000000000000000000000000000000000000000000000000000602082015250565b61218a81611d49565b811461219557600080fd5b50565b6121a181611d7b565b81146121ac57600080fd5b5056fea2646970667358221220c2756bb08cf500ccfb25d13e2b3064206025de60d5e687938e64608cfc02361164736f6c63430008040033",
  "linkReferences": {},
  "deployedLinkReferences": {}
}